:020000040800F2
:1000000000500020390100083101000831010008CA
:100010003101000831010008310100080000000032
:100020000000000000000000000000003101000896
:100030003101000800000000310100083101000812
:1000400031010008310100083101000831010008C8
:1000500000000000310100083101000831010008F2
:1000600031010008310100083101000831010008A8
:100070003101000831010008310100083101000898
:100080003101000831010008310100083101000888
:100090003101000831010008310100083101000878
:1000A0003101000831010008310100083101000868
:1000B0003101000831010008310100083101000858
:1000C0003101000831010008310100083101000848
:1000D0003101000831010008310100083101000838
:1000E0003101000831010008310100083101000828
:1000F0003101000831010008310100083101000818
:100100003101000831010008310100083101000807
:1001100031010008310100083101000831010008F7
:1001200031010008310100083101000831010008E7
:1001300080B400AFFEE7000080B588B000AF1A4B76
:10014000FB611A4BBB611A4A174BD31ABB600023E1
:100150007B610AE0BA69531CBB61FB69591CF961F8
:1001600012781A707B6901337B617A69BB689A42A5
:10017000F0D3104A104BD31A7B600F4B3B61002326
:10018000FB6007E03B695A1C3A6100221A70FB6869
:100190000133FB60FA687B689A42F3D300F00EF8F3
:1001A00000BF2037BD4680BD000000204802000887
:1001B00000000020000000200000002080B483B078
:1001C00000AF1A4B9B69194A43F010039361184B17
:1001D0005B68174A23F440135360154B5B68144A5D
:1001E00043F480135360124BDB68114A43F400530D
:1001F000D36000237B6002E07B6801337B607B6817
:1002000049F63F429342F7D9094BDB68084A23F489
:100210000053D36000233B6002E03B6801333B6046
:100220003B6849F63F429342F7D9DCE700100240B1
:100230000010014080B483B000AF0123FB7100BF08
:080240000C37BD4680BC70477D
:0400000508000139B5
:00000001FF
