:020000040800F2
:1000000000500020390100083101000831010008CA
:100010003101000831010008310100080000000032
:100020000000000000000000000000003101000896
:100030003101000800000000310100083101000812
:1000400031010008310100083101000831010008C8
:1000500000000000310100083101000831010008F2
:1000600031010008310100083101000831010008A8
:100070003101000831010008310100083101000898
:100080003101000831010008310100083101000888
:100090003101000831010008310100083101000878
:1000A0003101000831010008310100083101000868
:1000B0003101000831010008310100083101000858
:1000C0003101000831010008310100083101000848
:1000D0003101000831010008310100083101000838
:1000E0003101000831010008310100083101000828
:1000F0003101000831010008310100083101000818
:100100003101000831010008310100083101000807
:1001100031010008310100083101000831010008F7
:1001200031010008310100083101000831010008E7
:1001300080B400AFFEE7000080B588B000AF1A4B76
:10014000FB611A4BBB611A4A174BD31ABB600023E1
:100150007B610AE0BA69531CBB61FB69591CF961F8
:1001600012781A707B6901337B617A69BB689A42A5
:10017000F0D3104A104BD31A7B600F4B3B61002326
:10018000FB6007E03B695A1C3A6100221A70FB6869
:100190000133FB60FA687B689A42F3D300F00EF8F3
:1001A00000BF2037BD4680BD000000202C040008A1
:1001B00000000020000000200000002080B500AFFB
:1001C00004210D4800F01FF900F02EF800F042F86D
:1001D0000F210A4800F0FBF80346012B05D101224C
:1001E0000D21064800F0BBF8F2E700220D2103487C
:1001F00000F0B5F8ECE700BF00100240001001402D
:1002000080B483B000AF00237B6002E07B680133E1
:100210007B607B6849F63F429342F7D900BF00BF3D
:100220000C37BD4680BC704780B586B000AF0D234B
:100230007B600123FB600223BB6000233B613B1D0D
:100240001946034800F01CF800BF1837BD4680BDB2
:100250000010014080B586B000AF0F237B60022301
:10026000FB600023BB6000233B613B1D1946034834
:1002700000F006F800BF1837BD4680BD00100140F1
:1002800080B483B000AF786039603B681B68072B8F
:100290001DD93B681B68083B9B00072202FA03F349
:1002A000DA437B685B681A407B685A603B689B68EE
:1002B0009A003B685B681A433B681B68083B9B00DD
:1002C0009A407B685B681A437B685A601CE03B6815
:1002D0001B68083B9B00072202FA03F3DA437B68A2
:1002E0001B681A407B681A603B689B689A003B68F1
:1002F0005B681A433B681B68083B9B009A407B681D
:100300001B681A437B681A6000BF0C37BD4680BC6F
:10031000704780B483B000AF786039603B68072BCA
:100320000CD97B685B683A68083A9200072101FAA9
:1003300002F2D2431A407B685A600BE07B681B686C
:100340003A68083A9200072101FA02F2D2431A40B1
:100350007B681A6000BF0C37BD4680BC704780B414
:1003600083B000AF78600B467B8013467B707B7850
:10037000012B09D17B68DA687B88012101FA03F33C
:100380001A437B68DA6009E07B68DA687B880121C0
:1003900001FA03F3DB431A407B68DA6000BF0C37D5
:1003A000BD4680BC704780B483B000AF78600B4618
:1003B0007B807B68DA687B88012101FA03F35A406D
:1003C0007B68DA6000BF0C37BD4680BC704780B4E4
:1003D00085B000AF78600B467B800023FB737B68A1
:1003E0009B687A88012101FA02F21A407B8822FA7E
:1003F00003F3012B01D10123FB73FB7B1846143758
:10040000BD4680BC704780B483B000AF786039606F
:100410007B689A6901213B6801FA03F31A437B6800
:0C0420009A6100BF0C37BD4680BC7047DD
:0400000508000139B5
:00000001FF
