:020000040800F2
:1000000000500020390100083101000831010008CA
:100010003101000831010008310100080000000032
:100020000000000000000000000000003101000896
:100030003101000800000000310100082D04000813
:1000400031010008310100083101000831010008C8
:1000500000000000310100083101000831010008F2
:1000600031010008310100083101000831010008A8
:100070003101000831010008310100083101000898
:100080003101000831010008310100083101000888
:100090003101000831010008310100083101000878
:1000A0003101000831010008310100083101000868
:1000B0003101000831010008310100083101000858
:1000C0003101000831010008310100083101000848
:1000D0003101000831010008310100083101000838
:1000E0003101000831010008310100083101000828
:1000F0003101000831010008310100083101000818
:100100003101000831010008310100083101000807
:1001100031010008310100083101000831010008F7
:1001200031010008310100083101000831010008E7
:1001300080B400AFFEE7000080B588B000AF1A4B76
:10014000FB611A4BBB611A4A174BD31ABB600023E1
:100150007B610AE0BA69531CBB61FB69591CF961F8
:1001600012781A707B6901337B617A69BB689A42A5
:10017000F0D3104A104BD31A7B600F4B3B61002326
:10018000FB6007E03B695A1C3A6100221A70FB6869
:100190000133FB60FA687B689A42F3D300F00EF8F3
:1001A00000BF2037BD4680BD000000207C0600084F
:1001B00000000020040000200000002080B500AFF7
:1001C000102000F003F900F00BF80D21034800F0B7
:1001D000CCF8642000F054F9F7E700BF00100140AC
:1001E00080B586B000AF0D237B600123FB60022346
:1001F000BB6000233B613B1D1946034800F01CF81F
:1002000000BF1837BD4680BD0010014080B586B0E4
:1002100000AF0F237B600223FB600023BB60002341
:100220003B613B1D1946034800F006F800BF183734
:10023000BD4680BD0010014080B483B000AF78603F
:1002400039603B681B68072B20D93B681B68083B5B
:100250009B00072202FA03F3DA437B685B681A40CB
:100260007B685A603B689B689A003B685B681A43EE
:100270003B68DB681A433B681B68083B9B009A405D
:100280007B685B681A437B685A601FE03B681B68A9
:10029000083B9B00072202FA03F3DA437B681B68E2
:1002A0001A407B681A603B689B689A003B685B68F1
:1002B0001A433B68DB681A433B681B68083B9B009A
:1002C0009A407B681B681A437B681A6000BF0C3732
:1002D000BD4680BC704780B483B000AF78603960A1
:1002E0003B68072B0CD97B685B683A68083A920038
:1002F000072101FA02F2D2431A407B685A600BE0F0
:100300007B681B683A68083A9200072101FA02F2FA
:10031000D2431A407B681A6000BF0C37BD4680BCD0
:10032000704780B483B000AF78600B467B80134683
:100330007B707B78012B09D17B68DA687B8801218F
:1003400001FA03F31A437B68DA6009E07B68DA6834
:100350007B88012101FA03F3DB431A407B68DA60F2
:1003600000BF0C37BD4680BC704780B483B000AF7F
:1003700078600B467B807B68DA687B88012101FA14
:1003800003F35A407B68DA6000BF0C37BD4680BC7F
:10039000704780B485B000AF78600B467B80002347
:1003A000FB737B689B687A88012101FA02F21A408C
:1003B0007B8822FA03F3012B01D00123FB73FB7B23
:1003C00018461437BD4680BC7047000080B483B027
:1003D00000AF7860084B9A697B68DB43064913439A
:1003E0008B61054B9A6904497B6813438B6100BF9D
:1003F0000C37BD4680BC70470010024080B483B00B
:1004000000AF7860084BDA697B68DB430649134329
:10041000CB61054BDA6904497B681343CB6100BFAC
:100420000C37BD4680BC70470010024080B400AF5E
:10043000044B1B680133034A136000BFBD4680BCF8
:10044000704700BF0000002080B400AF0B4B43F6A4
:100450007F625A60094B00229A60084B1B68074A6A
:1004600043F004031360054B1B68044A43F0020386
:10047000136000BFBD4680BC704700BF10E000E0C5
:1004800080B584B000AF7860FFF7DEFF0D4B1B68CE
:100490000C4A43F0010313600B4B1B687A6813444A
:1004A000FB6000BF084B1B68FA689A42FAD8054BFC
:1004B0001B68044A23F00103136000BF1037BD46D8
:1004C00080BD00BF10E000E00000002080B58AB0D1
:1004D00000AF0420FFF77AFF4FF40030FFF78EFFE4
:1004E00002237B610323FB610023BB610123BB610A
:1004F00003233B600123BB6000237B6000237B6000
:1005000007F1140319460648FFF796FE3B461946C5
:100510000348FFF791FE00BF2837BD4680BD00BFEE
:100520000008014080B485B000AF786039600A4AA5
:100530003B68B2FBF3F3FB81FB891B099BB2DA003A
:10054000FB8903F00F0313431A467B681A6000BF50
:100550001437BD4680BC70470024F40080B483B0DB
:1005600000AF78600B46FB70002318460C37BD4681
:1005700080BC704780B582B000AF7860396007E01A
:100580003B685A1C3A601B7819467868FFF7E6FF0B
:100590003B681B78002BF3D100BF7B689B6903F09D
:1005A0004003002BF9D0002318460837BD4680BD14
:1005B00080B582B000AF78600A217868FFF7CEFF7F
:1005C000002318460837BD4680BD80B483B000AF15
:1005D000786000BF7B689B6903F02003002BF9D093
:1005E0007B681B69DBB218460C37BD4680BC704780
:1005F00080B584B000AF786039600023FB60786814
:10060000FFF7E3FF03467B817B890A2B09D0FB6858
:100610003A6813447A89D2B21A70FB680133FB60DE
:1006200005E0FB683A68134400221A7005E07B6815
:100630009B6903F02003002BE1D0002318461037FC
:10064000BD4680BD80B582B000AF78607B681A6817
:100650007B685B6819461046FFF764FF7B681B6880
:100660005B687A68126843F4005343F00C035360EC
:0C067000002318460837BD4680BD00007E
:0400000508000139B5
:00000001FF
