:020000040800F2
:1000000000500020390100083101000831010008CA
:100010003101000831010008310100080000000032
:100020000000000000000000000000003101000896
:10003000310100080000000031010008E903000858
:1000400031010008310100083101000831010008C8
:1000500000000000310100083101000831010008F2
:1000600031010008310100083101000831010008A8
:100070003101000831010008310100083101000898
:100080003101000831010008310100083101000888
:100090003101000831010008310100083101000878
:1000A0003101000831010008310100083101000868
:1000B0003101000831010008310100083101000858
:1000C0003101000831010008310100083101000848
:1000D0003101000831010008310100083101000838
:1000E0003101000831010008310100083101000828
:1000F0003101000831010008310100083101000818
:100100003101000831010008310100083101000807
:1001100031010008310100083101000831010008F7
:1001200031010008310100083101000831010008E7
:1001300080B400AFFEE7000080B588B000AF1A4B76
:10014000FB611A4BBB611A4A174BD31ABB600023E1
:100150007B610AE0BA69531CBB61FB69591CF961F8
:1001600012781A707B6901337B617A69BB689A42A5
:10017000F0D3104A104BD31A7B600F4B3B61002326
:10018000FB6007E03B695A1C3A6100221A70FB6869
:100190000133FB60FA687B689A42F3D300F00EF8F3
:1001A00000BF2037BD4680BD000000208804000845
:1001B00000000020040000200000002080B500AFF7
:1001C0000421064800F0FDF800F00CF80D21044869
:1001D00000F0C7F8642000F031F9F7E700100240A2
:1001E0000010014080B586B000AF0D237B60012375
:1001F000FB600223BB6000233B613B1D19460348A3
:1002000000F01CF800BF1837BD4680BD001001404B
:1002100080B586B000AF0F237B600223FB60002314
:10022000BB6000233B613B1D1946034800F006F804
:1002300000BF1837BD4680BD0010014080B483B0B8
:1002400000AF786039603B681B68072B1DD93B689D
:100250001B68083B9B00072202FA03F3DA437B6822
:100260005B681A407B685A603B689B689A003B68F1
:100270005B681A433B681B68083B9B009A407B689D
:100280005B681A437B685A601CE03B681B68083B4C
:100290009B00072202FA03F3DA437B681B681A40CB
:1002A0007B681A603B689B689A003B685B681A43EE
:1002B0003B681B68083B9B009A407B681B681A439D
:1002C0007B681A6000BF0C37BD4680BC704780B4A5
:1002D00083B000AF786039603B68072B0CD97B682E
:1002E0005B683A68083A9200072101FA02F2D243A9
:1002F0001A407B685A600BE07B681B683A68083AD2
:100300009200072101FA02F2D2431A407B681A6078
:1003100000BF0C37BD4680BC704780B483B000AFCF
:1003200078600B467B8013467B707B78012B09D16C
:100330007B68DA687B88012101FA03F31A437B6842
:10034000DA6009E07B68DA687B88012101FA03F34F
:10035000DB431A407B68DA6000BF0C37BD4680BCC7
:10036000704780B483B000AF78600B467B807B68B9
:10037000DA687B88012101FA03F35A407B68DA606E
:1003800000BF0C37BD4680BC704780B485B000AF5D
:1003900078600B467B800023FB737B689B687A88C0
:1003A000012101FA02F21A407B8822FA03F3012BA1
:1003B00001D00123FB73FB7B18461437BD4680BC7C
:1003C000704780B483B000AF786039607B689A6909
:1003D00001213B6801FA03F31A437B689A6100BF6D
:1003E0000C37BD4680BC704780B400AF044B1B681F
:1003F0000133034A136000BFBD4680BC704700BF95
:100400000000002080B400AF0B4B43F67F625A60BF
:10041000094B00229A60084B1B68074A43F004030B
:100420001360054B1B68044A43F00203136000BFCE
:10043000BD4680BC704700BF10E000E080B584B0CE
:1004400000AF7860FFF7DEFF0D4B1B680C4A43F0EE
:10045000010313600B4B1B687A681344FB6000BFF9
:10046000084B1B68FA689A42FAD8054B1B68044A85
:1004700023F00103136000BF1037BD4680BD00BFED
:0804800010E000E00000002084
:0400000508000139B5
:00000001FF
